:100000000C9490000C94B8000C94B8000C94B800B8
:100010000C94B8000C94B8000C94B8000C94B80080
:100020000C94B8000C94B8000C94B8000C94B80070
:100030000C94B8000C94B8000C94B8000C94B80060
:100040000C9449090C94B8000C944A050C94910541
:100050000C94B8000C94B8000C94B8000C94B80040
:100060000C94B8000C94B80008000000BE9224491B
:10007000123EABAAAA2ABECDCCCC4C3E00000080DA
:10008000BEABAAAAAA3E00000000BF000000803F4D
:100090000000000000084178D3BB4387D1133D190D
:1000A0000E3CC3BD4282AD2B3E68EC8276BED98F3A
:1000B000E1A93E4C80EFFFBE01C4FF7F3F0000007E
:1000C000000000000000240027002A0000000000BB
:1000D000250028002B000000000023002600290036
:1000E00004040404040404040202020202020303DE
:1000F00003030303010204081020408001020408E6
:100100001020010204081020000000070002010076
:10011000000304060000000000000000BA00CE0644
:1001200011241FBECFEFD8E0DEBFCDBF11E0A0E0AD
:10013000B1E0E8E8FCE102C005900D92AE3EB107E7
:10014000D9F713E0AEEEB1E001C01D92A031B107C6
:10015000E1F711E0C0E2D1E004C02297FE010E9465
:100160003E0ECC31D107C9F70E943A090C94420ED9
:100170000C940000CF92EF920F938EEE91E06CE022
:100180004BE025E004E053E0E52E32E0C32E0E9470
:1001900010050F91EF90CF9008950E944C0AAA2766
:1001A00097FDA095BA2FBC01CD010E94660C2AE0F4
:1001B00038E240EA5BE30E945F0D9B01AC0160E026
:1001C00070E080EA90E40E94CB0B20E030E040E851
:1001D0005FE30E94620B9B01AC0160E070E080E095
:1001E0009FE30E94CB0B20E030E04AE754E40E94FA
:1001F0005F0D0895AF92BF92CF92DF92EF92FF9280
:100200000F931F9381E090E00E94CD000E941F0D8C
:100210007B018C0123E031E440E459E30E945F0D4F
:1002200028EF3CE24BEC5AE30E94630B5B016C014C
:10023000C801B701A80197010E945F0DA8019701AD
:100240000E945F0D2BEF33EE4EE855E30E945F0DE9
:100250009B01AC01C601B5010E94630B9B01AC017F
:1002600060E070E080E89FE30E94CB0B23E333E97A
:1002700048E853E40E94620B26E636E646EE5FE36A
:100280000E945F0D20E030E040E052E40E94630BEA
:100290001F910F91FF90EF90DF90CF90BF90AF90A4
:1002A000089580E00E944C0AAA2797FDA095BA2FD6
:1002B000BC01CD010E94660C20E030E040EA50E431
:1002C0000E945F0D20E030E040E85AE30E945F0D9D
:1002D0002BEA3AEA4AEA5EE30E94CB0B08956F925A
:1002E0007F928F929F92AF92BF92CF92DF92EF92C6
:1002F000FF920F931F9300910B0210910C02000FBD
:10030000111F000F111FFDE0EF2EF2E0FF2EE00E97
:10031000F11E609103027091040280910502909198
:100320000602F70120813181428153810E94620BD4
:100330006093030270930402809305029093060277
:100340000B5C1D4F609107027091080280910902B9
:1003500090910A02F80120813181428153810E94EB
:10036000620B6093070270930802809309029093D6
:100370000A020E94FA00F7016083718382839383EB
:1003800000910B0210910C020E945101000F111FED
:10039000000F111F0B5C1D4FF80160837183828376
:1003A0009383E0900B02F0900C028701000F111F65
:1003B000000F111FF801E35FFD4F60910302709180
:1003C00004028091050290910602208131814281D0
:1003D00053810E94630B3B014C01609303027093B5
:1003E000040280930502909306020B5C1D4F6091FE
:1003F0000702709108028091090290910A02F801A7
:1004000020813181428153810E94630B5B016C0129
:1004100060930702709308028093090290930A0286
:100420000894E11CF11CF0920C02E0920B02FAE03D
:10043000EF16F10424F010920C0210920B02C4018A
:10044000B30120E030E040E251E40E94CB0B609326
:100450005D0270935E0280935F0290936002C6011A
:10046000B50120E030E040E251E40E94CB0B609304
:10047000610270936202809363029093640261E070
:1004800070E080E090E00E94E4091F910F91FF90DE
:10049000EF90DF90CF90BF90AF909F908F907F9024
:1004A0006F900895CF93DF9385E692E065E871E061
:1004B0000E9427096091C8017091C90186E00E94DD
:1004C0006E0A6091CA017091CB0189E00E946E0AA8
:1004D0008EEE91E060E142E020E00E945A048EEE50
:1004E00091E00E9452048EEE91E06AE971E00E9470
:1004F0003D0885E692E06AE971E00E94270964EC14
:1005000079E080E090E00E94E409C0E0D0E08EEE67
:1005100091E00E9415046AEF70E080E090E00E9494
:10052000E4092196C431D10591F7DF91CF91089567
:10053000AF92BF92CF92DF92EF92FF920F931F93F1
:100540000E946F01A0905D02B0905E02C0905F02B9
:10055000D0906002E0906102F0906202009163022C
:10056000109164020E9491092AEF30E040E050E0CF
:100570000E941A0E611571058105910571F00E94A6
:10058000910928EC30E040E050E00E941A0E61151D
:1005900071058105910509F048C08EEE91E00E9439
:1005A00052048EEE91E0B801A70122E030E00E94F3
:1005B00024098EEE91E065E040E00E9423048EEE77
:1005C00091E06BEA71E00E943D088EEE91E060E000
:1005D00041E00E9423048EEE91E0B601A50122E0E5
:1005E00030E00E9424098EEE91E065E041E00E9437
:1005F00023048EEE91E061EB71E00E943D08C6019C
:10060000B50120E030E041E653E40E94160D1816D3
:1006100064F48EEE91E06AE041E00E9423048EEEE5
:1006200091E063EB71E00E943D081F910F91FF90F4
:10063000EF90DF90CF90BF90AF90089585E692E065
:1006400040E855E260E070E00E94C1058DE061E0A5
:100650000E94CE0A0E94520280E090E020E030E04A
:1006600040E050E0FC01E35FFD4F20833183428393
:100670005383FC01EB5CFD4F208331834283538322
:1006800004968832910571F720935D0230935E02E3
:1006900040935F02509360022093610230936202A4
:1006A000409363025093640208950F931F938C014B
:1006B000FC01868160E00E940D0B81E090E00E94C9
:1006C0009F09F801868161E00E940D0B81E090E0B6
:1006D0000E949F09F801868160E00E940D0B84E66C
:1006E00090E00E949F091F910F910895CF92DF9291
:1006F000EF92FF920F931F93CF93DF93D82EC92EC3
:10070000282F392FC9018C01C0E0D0E0E62EFF244C
:10071000F801878161E00E94CE0AB7010C2E02C069
:10072000759567950A94E2F76170F80187810E94D8
:100730000D0B21960F5F1F4FC830D10549F78D2D46
:100740009C2D0E945503DF91CF911F910F91FF9037
:10075000EF90DF90CF900895CF92DF92EF92FF92CB
:100760000F931F93CF93DF93D82EC92E282F392FA5
:10077000C9018C01C0E0D0E0E62EFF24F80187819A
:1007800061E00E94CE0AB7010C2E02C075956795F4
:100790000A94E2F76170F80187810E940D0B21969F
:1007A0000F5F1F4FC430D10549F78D2D9C2D0E943E
:1007B0005503DF91CF911F910F91FF90EF90DF9044
:1007C000CF9008951F93CF93DF93EC01162F8C8168
:1007D000642F0E940D0B8D818F3F19F060E00E9405
:1007E0000D0B8F8584FF05C0CE01612F0E9476031B
:1007F0000EC0612F70E084E0759567958A95E1F7EA
:10080000CE010E94AC03CE01612F0E94AC03DF91A8
:10081000CF911F91089541E00E94E20381E090E0B2
:10082000089540E00E94E203089568E10E941104E7
:100830000895FC016089862F8460808B6C60CF01F5
:100840000E9411040895DF93CF93CDB7DEB72897A8
:100850000FB6F894DEBF0FBECDBF9C01FE013196EE
:10086000A5EDB1E088E00D9001928150E1F7F9012A
:100870008389481710F0482F4150E42FF0E0EE0F25
:10088000FF1FEC0FFD1F8181680F6068C9010E9486
:10089000110428960FB6F894DEBF0FBECDBFCF91DE
:1008A000DF91089561E00E94110480ED97E00E94BD
:1008B0009F090895CF93DF93EC01423018F08F85A4
:1008C00088608F874B8B1C8A222329F0413019F4D2
:1008D0008F8584608F8780E593EC0E949F098C81CF
:1008E00060E00E940D0B8E8160E00E940D0B8D81F7
:1008F0008F3F19F060E00E940D0B6F8564FD1DC0F5
:10090000CE0163E00E94AC0384E991E10E949F095B
:10091000CE0163E00E94AC0384E991E10E949F094B
:10092000CE0163E00E94AC0386E990E00E949F093B
:10093000CE0162E00E94AC0316C06062CE010E944C
:10094000110484E991E10E949F096F856062CE01E4
:100950000E94110486E990E00E949F096F85606201
:10096000CE010E9411046F856062CE010E941104C5
:1009700084E0888BCE010E941904CE010E945204AB
:1009800082E0898BCE0166E00E941104DF91CF9155
:1009900008956F927F928F92AF92CF92EF920F93C2
:1009A0001F93DF93CF93CDB7DEB73C01162F842F73
:1009B000F301448325830683E782C086A18682866D
:1009C0009D8593879E8594879F859587988996872F
:1009D00061E00E94CE0AF30185818F3F19F061E04A
:1009E0000E94CE0AF301868161E00E94CE0A1123A3
:1009F00019F0F301178603C080E1F3018787C30173
:100A000060E141E020E00E945A04CF91DF911F9104
:100A10000F91EF90CF90AF908F907F906F9008954F
:100A20008F92AF92CF92EF920F931F93CF93DF935A
:100A3000DC01362F542F722F102FAE2C8C2C1396D6
:100A40001C921E92129781ED91E011969C938E93C9
:100A500000D000D0EDB7FEB73196CDB7DEB7198222
:100A6000118212821382CD0161E0432F2FEF052FF7
:100A7000E72EC12E0E94C9040F900F900F900F9087
:100A8000DF91CF911F910F91EF90CF90AF908F900A
:100A9000089508951F920F920FB60F9211242F936D
:100AA0003F934F938F939F93EF93FF938091C00059
:100AB00082FD19C04091C60080918302282F30E04A
:100AC0002F5F3F4F2F7330708091840290E0281782
:100AD000390759F0E0918302F0E0EB59FD4F42A352
:100AE0002093830202C08091C600FF91EF919F91F5
:100AF0008F914F913F912F910F900FBE0F901F90AC
:100B00001895809183022091840290E0805C9F4F31
:100B1000821B91098F739070892B11F00E944905F7
:100B200008951F920F920FB60F9211242F938F9357
:100B30009F93EF93FF93909185028091860298177F
:100B400031F48091C1008F7D8093C10010C0E0918D
:100B50008602F0E0E953FD4F20818091860290E00B
:100B600001968F739070809386022093C600FF9148
:100B7000EF919F918F912F910F900FBE0F901F902B
:100B80001895AF92BF92DF92EF92FF920F931F934F
:100B9000CF93DF93EC017A018B01DD24403081EEAD
:100BA000580780E0680780E0780711F0DD24D394CF
:100BB00091E0A92EB12CE889F989DD2069F0C50101
:100BC0000C8C02C0880F991F0A94E2F7808360E0C2
:100BD00079E08DE390E005C0108260E874E88EE172
:100BE00090E0A80197010E941A0E21503040404029
:100BF0005040569547953795279580E12030380726
:100C000020F0DD2011F0DD24D6CFEC85FD8530838A
:100C1000EE85FF8520831D8EEA89FB89408121E0D6
:100C200030E0C901088C02C0880F991F0A94E2F7CE
:100C3000482B4083EA89FB894081C901098C02C0A5
:100C4000880F991F0A94E2F7482B4083EA89FB89B1
:100C50004081C9010A8C02C0880F991F0A94E2F7EB
:100C6000482B4083EA89FB8980810B8C02C0220FCC
:100C7000331F0A94E2F7209528232083DF91CF9138
:100C80001F910F91FF90EF90DF90BF90AF9008956C
:100C9000FC01268D878D30E0205C3F4F281B3109F9
:100CA0002F733070C9010895FC01968D878D9817B8
:100CB00019F42FEF3FEF06C0878DE80FF11D82A1D9
:100CC000282F30E0C9010895DC015E969C915E9763
:100CD0005F968C915F97981719F42FEF3FEF10C034
:100CE0005F968C915F97FD01E80FF11D92A15F96D1
:100CF0008C915F978F5F8F735F968C93292F30E075
:100D0000C9010895DC015D968C915D97882339F0C7
:100D10005096ED91FC915197808186FFF9CF5D96B9
:100D20001C920895DC0190968C919097282F30E0CA
:100D30002F5F3F4F2F73307091968C91919790E079
:100D400028173907C9F390968C919097FD01E80F09
:100D5000F11DEE59FF4F608390962C939097529619
:100D6000ED91FC915397208181E090E05B960C908F
:100D70005B9702C0880F991F0A94E2F7282B208303
:100D800081E05D968C935D975096ED91FC91519723
:100D900080818064808381E090E0089510926802F1
:100DA0001092670288EE93E0A0E0B0E080936902C1
:100DB00090936A02A0936B02B0936C0281EE91E073
:100DC000909366028093650210928602809186025B
:100DD0008093850210928402809184028093830222
:100DE00085EC90E0909372028093710284EC90E025
:100DF000909374028093730280EC90E0909376025B
:100E00008093750281EC90E0909378028093770252
:100E100082EC90E090937A028093790286EC90E0E5
:100E200090937C0280937B0284E080937D0283E038
:100E300080937E0287E080937F0285E0809380022A
:100E400081E0809381020895CF92DF92EF92FF922A
:100E50000F931F93CF93DF937C016B018A01C0E056
:100E6000D0E00FC0D6016D916D01D701ED91FC91DD
:100E70000190F081E02DC7010995C80FD91F0150DD
:100E800010400115110571F7CE01DF91CF911F912F
:100E90000F91FF90EF90DF90CF900895EF92FF9227
:100EA0000F931F938C01DC01ED91FC910190F08177
:100EB000E02D6DE009957C01D801ED91FC91019048
:100EC000F081E02DC8016AE009959C012E0D3F1DBF
:100ED000C9011F910F91FF90EF900895CF93DF9379
:100EE000EC016115710519F420E030E00FC0DB0161
:100EF0000D900020E9F71197A61BB70BE881F98147
:100F00000280F381E02DAD0109959C01C901DF91BB
:100F1000CF9108954F925F927F928F929F92AF925E
:100F2000BF92CF92DF92EF92FF920F931F93DF93C6
:100F3000CF93CDB7DEB7A1970FB6F894DEBF0FBE43
:100F4000CDBF2C01742ECB01223008F42AE019A267
:100F500031E2C32ED12CCC0EDD1E822E9924AA2480
:100F6000BB24672D752FA50194010E941A0E7901EB
:100F70008A01C801B701A50194010E94FB0D472D0C
:100F8000461B0894C108D1084A3014F4405D01C0E2
:100F9000495CF6014083E114F1040105110521F0DB
:100FA0007E2C5F2DC801DDCFC201B6010E946E0705
:100FB000A1960FB6F894DEBF0FBECDBFCF91DF91E3
:100FC0001F910F91FF90EF90DF90CF90BF90AF9067
:100FD0009F908F907F905F904F900895DC01211536
:100FE000310541F4ED91FC910190F081E02D642FE9
:100FF000099508950E948A070895CF92DF92EF9293
:10100000FF920F931F93CF93DF93EC016A017B0153
:101010002115310541F4E881F9810190F081E02D3D
:10102000642F09951FC02A303105D1F477FF17C00E
:10103000E881F9810190F081E02D6DE209958C0144
:1010400044275527BA014C195D096E097F09CE0165
:101050002AE00E948A079801280F391F04C02AE05D
:101060000E948A079C01C901DF91CF911F910F91C6
:10107000FF90EF90DF90CF9008950E946E07089543
:101080007F928F929F92AF92BF92CF92DF92EF9218
:10109000FF920F931F93CF93DF934C017A018B0143
:1010A000722ECB01BA01A80197010E94C20D8823BC
:1010B00021F0C4016AEB71E021C0C0E0D0E057012B
:1010C0006801E894D7F8C601B5012FEF3FEF4FE76D
:1010D0005FE70E94C20D882351F4C601B5012FEFCE
:1010E0003FEF4FE75FE70E94C70B181614F0C1E00F
:1010F000D0E0219739F0C4016EEB71E00E946E07D9
:10110000EC0193C0C801B7012FEF3FEF4FE75FE459
:101110000E94160D181654F0C801B7012FEF3FEFCB
:101120004FE75FEC0E94C70B882324F4C40162ECF4
:1011300071E0E4CFC801B70120E030E040E050E0CA
:101140000E94C70B87FD03C0C0E0D0E00EC0D401F1
:10115000ED91FC910190F081E02DC4016DE20995C3
:10116000EC0117FB109517F9109520E030E040E0F6
:101170005FE3DD240BC0CA01B90120E030E040E2AA
:1011800051E40E94CB0B9B01AC01D394D71498F38C
:10119000C801B7010E94630B5B016C010E94380C0F
:1011A0007B018C01C401B801A7012AE030E00E9454
:1011B000EE07C80FD91F772039F0C40166EC71E043
:1011C0000E946E07C80FD91FC801B7010E94640CA6
:1011D0009B01AC01C601B5010E94620B24C020E056
:1011E00030E040E251E40E945F0D7B018C010E94DF
:1011F000330C5B016C01CC24B7FCC094DC2CC40123
:10120000B601A5012AE030E00E94FD07C80FD91FF2
:10121000C601B5010E94660C9B01AC01C801B70173
:101220000E94620B7A947720D1F6CE01DF91CF91A4
:101230001F910F91FF90EF90DF90CF90BF90AF90F4
:101240009F908F907F9008950E9440080895EF929C
:10125000FF920F931F937C010E946E078C01C701C0
:101260000E944E07080F191FC8011F910F91FF9090
:10127000EF900895CF93DF930E94A9090E941E0367
:10128000C1E8D5E00E9498022097E1F30E94810511
:10129000F9CF1F920F920FB60F9211242F933F9305
:1012A0008F939F93AF93BF9380910B0390910C0307
:1012B000A0910D03B0910E0330910F030196A11D73
:1012C000B11D232F2D5F2D3720F02D570196A11D25
:1012D000B11D20930F0380930B0390930C03A093F5
:1012E0000D03B0930E038091070390910803A09122
:1012F0000903B0910A030196A11DB11D8093070354
:1013000090930803A0930903B0930A03BF91AF9190
:101310009F918F913F912F910F900FBE0F901F9033
:1013200018958FB7F89420910B0330910C034091DE
:101330000D0350910E038FBFB901CA0108950197A3
:1013400039F0880F991F880F991F02970197F1F7BD
:101350000895789484B5826084BD84B5816084BD2D
:1013600085B5826085BD85B5816085BDEEE6F0E01E
:10137000808181608083E1E8F0E01082808182607A
:101380008083808181608083E0E8F0E080818160FB
:101390008083E1EBF0E0808184608083E0EBF0E02B
:1013A000808181608083EAE7F0E0808184608083CF
:1013B0008081826080838081816080838081806879
:1013C00080831092C1000895EF92FF920F931F93B4
:1013D000CF93DF937B018C013FB7F8948091070393
:1013E00090910803A0910903B0910A0326B5A89B28
:1013F00005C02F3F19F00196A11DB11D3FBFBA2FA7
:10140000A92F982F8827820F911DA11DB11D52E091
:10141000880F991FAA1FBB1F5A95D1F7EC0130C046
:101420000E94610B3FB7F8948091070390910803E5
:10143000A0910903B0910A0326B5A89B05C02F3FD0
:1014400019F00196A11DB11D3FBFBA2FA92F982FEA
:101450008827820F911DA11DB11D32E0880F991FB1
:10146000AA1FBB1F3A95D1F78C1B9D0B885E93403A
:10147000B8F20894E108F10801091109C851DC4FDC
:10148000E114F1040105110559F6DF91CF911F9187
:101490000F91FF90EF900895982F8E3008F09E5096
:1014A00097708091CC018295880F880F807C892B62
:1014B00080937C0080917A00806480937A00809190
:1014C0007A0086FDFCCF2091780040917900942F1E
:1014D00080E030E0282B392BC90108951F93CF936A
:1014E000DF93182FEB0161E00E94CE0A209709F4E8
:1014F0004AC0CF3FD10509F449C0E12FF0E0E85FD1
:10150000FE4F84918330C1F0843028F4813051F053
:101510008230B1F50CC0863019F1873049F1843042
:1015200079F514C084B5806884BDC7BD33C084B567
:10153000806284BDC8BD2EC0809180008068809389
:101540008000D0938900C093880024C080918000DF
:10155000806280938000D0938B00C0938A001AC071
:101560008091B00080688093B000C093B30012C037
:101570008091B00080628093B000C093B4000AC034
:10158000C038D1051CF4812F60E002C0812F61E0DA
:101590000E940D0BDF91CF911F910895CF93DF93A0
:1015A000482F50E0CA018C509F4FFC0134914052AB
:1015B0005F4FFA018491882369F190E0880F991FA9
:1015C000FC01EE53FF4FA591B491FC01E453FF4F92
:1015D000C591D491662351F42FB7F8948C91932F31
:1015E000909589238C93888189230BC0623061F4A4
:1015F0002FB7F8948C91932F909589238C938881A1
:10160000832B88832FBF06C09FB7F8948C91832BC0
:101610008C939FBFDF91CF910895482F50E0CA016E
:10162000885F9E4FFC012491CA018C509F4FFC01A2
:10163000949140525F4FFA013491332309F440C032
:10164000222351F1233071F0243028F42130A1F00D
:10165000223011F514C02630B1F02730C1F024300B
:10166000D9F404C0809180008F7703C080918000FE
:101670008F7D8093800010C084B58F7702C084B5C1
:101680008F7D84BD09C08091B0008F7703C08091A9
:10169000B0008F7D8093B000E32FF0E0EE0FFF1FCE
:1016A000E453FF4FA591B4912FB7F894662321F42A
:1016B0008C919095892302C08C91892B8C932FBF9C
:1016C000089508955058BB27AA270ED075C166D13A
:1016D00030F06BD120F031F49F3F11F41EF45BC168
:1016E0000EF4E095E7FB51C1E92F77D180F3BA17EB
:1016F000620773078407950718F071F49EF58FC190
:101700000EF4E0950B2EBA2FA02D0B01B90190011C
:101710000C01CA01A0011124FF27591B99F0593F60
:1017200050F4503E68F11A16F040A22F232F342FA8
:101730004427585FF3CF469537952795A795F040F6
:101740005395C9F77EF41F16BA0B620B730B840B0B
:10175000BAF09150A1F0FF0FBB1F661F771F881FC3
:10176000C2F70EC0BA0F621F731F841F48F487951B
:1017700077956795B795F7959E3F08F0B3CF93950A
:10178000880F08F09927EE0F979587950895D9D07F
:1017900008F481E008950CD00FC107D140F0FED0CD
:1017A00030F021F45F3F19F0F0C0511139C1F3C09E
:1017B00014D198F39923C9F35523B1F3951B550B15
:1017C000BB27AA2762177307840738F09F5F5F4F14
:1017D000220F331F441FAA1FA9F333D00E2E3AF055
:1017E000E0E830D091505040E695001CCAF729D06F
:1017F000FE2F27D0660F771F881FBB1F26173707BE
:101800004807AB07B0E809F0BB0B802DBF01FF27ED
:1018100093585F4F2AF09E3F510568F0B6C000C153
:101820005F3FECF3983EDCF3869577956795B79527
:10183000F7959F5FC9F7880F911D9695879597F942
:101840000895E1E0660F771F881FBB1F62177307BB
:101850008407BA0720F0621B730B840BBA0BEE1FD0
:1018600088F7E095089504D06894B111D9C008951F
:10187000BCD088F09F5790F0B92F9927B751A0F0AE
:10188000D1F0660F771F881F991F1AF0BA95C9F714
:1018900012C0B13081F0C3D0B1E00895C0C0672F4D
:1018A000782F8827B85F39F0B93FCCF386957795C4
:1018B0006795B395D9F73EF49095809570956195AD
:1018C0007F4F8F4F9F4F0895E89409C097FB3EF4D8
:1018D00090958095709561957F4F8F4F9F4F99237D
:1018E000A9F0F92F96E9BB279395F69587957795FB
:1018F0006795B795F111F8CFFAF4BB0F11F460FFBB
:101900001BC06F5F7F4F8F4F9F4F16C0882311F012
:1019100096E911C0772321F09EE8872F762F05C026
:10192000662371F096E8862F70E060E02AF09A95C1
:10193000660F771F881FDAF7880F9695879597F9B6
:101940000895990F0008550FAA0BE0E8FEEF161650
:101950001706E807F907C0F012161306E407F507A3
:1019600098F0621B730B840B950B39F40A2661F017
:10197000232B242B252B21F408950A2609F4A140BA
:10198000A6958FEF811D811D089597F99F6780E8C7
:1019900070E060E008959FEF80EC089500240A94C1
:1019A0001616170618060906089500240A9412163A
:1019B0001306140605060895092E0394000C11F46D
:1019C000882352F0BB0F40F4BF2B11F460FF04C01A
:1019D0006F5F7F4F8F4F9F4F089557FD9058440F73
:1019E000551F59F05F3F71F04795880F97FB991F7E
:1019F00061F09F3F79F0879508951216130614063B
:101A0000551FF2CF4695F1DF08C0161617061806C7
:101A1000991FF1CF86957105610508940895E894A2
:101A2000BB2766277727CB0197F908958ADF08F44B
:101A30008FEF08950EF0AAC0AECF6894A6CFD5DF81
:101A4000C8F39923D1F3C6F3DF93CF931F930F937A
:101A5000FF92C92FDD2788232AF02197660F771F71
:101A6000881FDAF720E030E040E85FEB9FE3883939
:101A700020F0803E30F021968F7725DEE8E6F0E01A
:101A800003C021DEE5E9F0E091D08B01BE01EC015D
:101A9000FB2E6F5771097595771F880B990B16DF11
:101AA00028E132E741E35FE316D0AF2D9801AE01A4
:101AB000FF900F911F91CF91DF9116DE7DCF0BD05C
:101AC0007BCF6CDF28F071DF18F0952309F05DCF34
:101AD00062CF1124A5CF81DFA0F3959FD1F3950F9D
:101AE00050E0551F629FF001729FBB27F00DB11DA2
:101AF000639FAA27F00DB11DAA1F649F6627B00D32
:101B0000A11D661F829F2227B00DA11D621F739F1A
:101B1000B00DA11D621F839FA00D611D221F749F28
:101B20003327A00D611D231F849F600D211D822F6F
:101B3000762F6A2F11249F5750408AF0E1F08823B6
:101B40004AF0EE0FFF1FBB1F661F771F881F9150C3
:101B50005040A9F79E3F510570F017CF61CF5F3F0E
:101B6000ECF3983EDCF3869577956795B795F795F6
:101B7000E7959F5FC1F7FE2B880F911D969587957E
:101B800097F90895DEDE880B990B08959F3F49F081
:101B9000915028F4869577956795B7959F5F803823
:101BA0009F4F880F9695879597F90895DF93CF9368
:101BB0001F930F93FF92EF92DF927B018C01689449
:101BC00005C0DA2EEF0187DFFE01E894A59125918B
:101BD000359145915591AEF3EF0186DDFE019701F8
:101BE000A801DA9479F7DF90EF90FF900F911F91A1
:101BF000CF91DF910895629FD001739FF001829F82
:101C0000E00DF11D649FE00DF11D929FF00D839F8B
:101C1000F00D749FF00D659FF00D9927729FB00D28
:101C2000E11DF91F639FB00DE11DF91FBD01CF013B
:101C300011240895A1E21A2EAA1BBB1BFD010DC0A1
:101C4000AA1FBB1FEE1FFF1FA217B307E407F5076C
:101C500020F0A21BB30BE40BF50B661F771F881F48
:101C6000991F1A9469F760957095809590959B01DE
:101C7000AC01BD01CF010895EE0FFF1F0590F49157
:081C8000E02D0994F894FFCF58
:101C8800437572736F72204F6E00437572736F7273
:101C9800204F666600437572736F7220426C696EDE
:101CA8006B204F6E00536574437572736F722044D6
:101CB800656D6F00352C300031302C3100332C31FC
:101CC800005363726F6C6C205269676874004465D6
:101CD8006D6F00426567696E6E696E670041726478
:101CE80075696E6F005363726F6C6C204C65667417
:101CF8002044656D6F00446973706C6179204F6E84
:101D08002F4F666600496E697469616C697A696EFD
:101D18006720746865206C636400436172204D65B8
:101D280074726963732076302E3100766F6C747329
:101D380000460046616E204F4E006E616E00696E6F
:101D480066006F7666002E006E003200010000000B
:101D5800000B042407000040001400540000000099
:0E1D6800009206240748066406540682060010
:00000001FF
